:100000007AC0000097C0000095C0000093C00000B7
:1000100091C000008FC000008DC000008BC00000A8
:1000200089C0000087C0000085C0000083C00000B8
:1000300081C0000094C400007DC000007BC00000AF
:1000400079C0000078C0000075C0000073C00000D7
:1000500071C000006FC000006DC000006BC00000E8
:1000600069C0000067C0000065C0000063C00000F8
:1000700061C000005FC000005DC000005BC0000008
:1000800059C0000057C0000055C0000053C0000018
:1000900051C000004FC000004DC000004BC0000028
:1000A00049C0000047C0000045C0000043C0000038
:1000B00041C000003FC000003DC000003BC0000048
:1000C00039C0000037C0000035C0000033C0000058
:1000D00031C000002FC000002DC000002BC0000068
:1000E00029C000001D0431043A042C046A044F04A2
:1000F0006C0494047D0411241FBECFEFD1E2DEBF57
:10010000CDBF00E00CBF12E0A0E0B2E0EEE3FBE008
:1001100000E00BBF02C007900D92AC3BB107D9F7CE
:1001200022E0ACEBB2E001C01D92A73CB207E1F7C0
:100130005DD303C565CF1F920F920FB60F921124A6
:100140008F939F939EB188E089278EB978949F9171
:100150008F910F900FBE0F901F90189510928000F6
:10016000E1E8F0E010828081896080838081887F6F
:100170008160808381E49FE0909389008093880070
:100180000895EFE6F0E08081826080830895EFE6D5
:10019000F0E080818D7F80838EB1877F8EB9089556
:1001A0001092B90083E08093B800089594EA909388
:1001B000BC009091BC009923E4F79091B900987F1E
:1001C000983091F48093BB0084E88093BC008091C8
:1001D000BC008823E4F78091B900887F883131F032
:1001E000803231F482E0089584E0089581E008953A
:1001F00083E0089594EA9093BC009091BC00992309
:10020000E4F79091B900987F983091F48093BB0007
:1002100084E88093BC008091BC008823E4F780913F
:10022000B900887F803431F0883431F482E0089559
:1002300084E0089581E0089583E008958093BB00F1
:1002400084E88093BC008091BC008823E4F780910F
:10025000B900887F883221F0803321F482E008954C
:1002600081E0089583E0089584EC8093BC00809140
:10027000BC008823E4F78091BB00089584E8809354
:10028000BC008091BC008823E4F78091BB000895F6
:1002900084E98093BC008091BC0084FDFCCF08956C
:1002A000CF93C82F80E282DF8350823038F08C2FCA
:1002B000C5DF813029F4ECDF80E003C083E001C0BA
:1002C00083E0CF91089585B1806285B9000085B142
:1002D0008F7D85B90895CF93C82F662331F0E2E072
:1002E000F1E080818064808305C0E2E0F1E08081FC
:1002F0008F7B808385B18F7E85B98DB180628DB90A
:1003000083B3806283BBE1E0F1E080818860808319
:10031000808180618083E2E0F1E080818F7E808354
:100320008081877F808384B38F7D84BB8EB18F7DF6
:100330008EB9CC231CF4808180618083C6FF05C008
:10034000E2E0F1E0808188608083C5FF03C084B370
:10035000806284BBC4FF03C08EB180628EB9B3DFFC
:10036000E2E0F1E080818F7E80838081877F8083DF
:1003700084B38F7D84BB8EB18F7D8EB9C3FF03C0E4
:10038000808180618083C2FF05C0E2E0F1E080816E
:1003900088608083C1FF03C084B3806284BBC0FFD8
:1003A00003C08EB180628EB98EDF8EB180628EB94D
:1003B00084B3806284BBE2E0F1E080818860808366
:1003C000808180618083CF910895882331F0E2E0BD
:1003D000F1E080818064808305C0E2E0F1E080810B
:1003E0008F7B808385B1806185B98DB18F7D8DB91B
:1003F00083B38F7D83BBE1E0F1E08081877F8083E1
:1004000080818F7E808385B1806285B90000659987
:1004100002C080E001C080E1959980629091000166
:1004200093FD80649091000194FD806895B19F7D5B
:1004300095B9000095B1906295B900006599816009
:10044000959982609091000193FD846090910001E4
:1004500094FD886095B19F7D95B9089580E0B5DFE2
:100460008823E4F300C000C080E0AFCF0895CF93AD
:10047000C82FF4DF60E08C2F2EDFCF91089561113B
:1004800003C08058F4CF08958054F1CF089581E0DF
:10049000EECF0895CF93C82FE1DFCA3041F4803406
:1004A00010F480E401C080E08058E1DF03C061E027
:1004B0008C2F11DFCF910895CF93DF93FC0102C001
:1004C000E9DFFE01EF01219680818111F9CFDF91F3
:1004D000CF910895CF93C82FE1E0F1E0808180644F
:1004E000808384B1806184B984B1806284B98DB124
:1004F00080628DB983B3806283BB80818860808392
:100500008081806180838FE99FE00197F1F700C0CF
:10051000000084B3806284BB8EB180628EB9D3DE6A
:1005200081EE94E00197F1F700C00000CCDE95E188
:100530009A95F1F70000C7DE85E18A95F1F7000092
:100540008EB18F7D8EB9BFDE95E19A95F1F70000EF
:1005500088E28DDF88E08BDF9ADF86E088DF8C2FF2
:1005600086DFCF9108958F929F92AF92BF92CF92E4
:10057000DF92EF92FF920F931F93CF93DF9300D000
:100580001F921F92CDB7DEB75C01962E842ED70145
:10059000C601801B910BA20BB30BBC01CD016857A8
:1005A0007C4E8F4F9F4F28EE33E040E050E02FD23B
:1005B000F5018081821799F0122F49E0BE016F5F2B
:1005C0007F4F812F90E056D2F5011083682D892D41
:1005D00056DFCE01019670DF8CE192E06DDF0F9067
:1005E0000F900F900F900F90DF91CF911F910F916F
:1005F000FF90EF90DF90CF90BF90AF909F908F9043
:1006000008950F931F93CF93DF939C01FB0190817B
:100610009A3038F5EB01890127DE833439F08837C9
:1006200019F0833261F41FC08FEF1EC088818150A2
:100630008883F801E80FF11D108280E015C09881D1
:10064000F801E90FF11D8083288130E02F5F3F4FD3
:10065000F801E20FF31F108288818F5F888380E0AA
:1006600003C08EEF01C081E0DF91CF911F910F9108
:1006700008954F925F926F927F928F929F92AF9266
:10068000BF92CF92DF92EF92FF920F931F93CF937F
:10069000DF93CDB7DEB766970FB6F894DEBF0FBE17
:1006A000CDBFFE0131968AE0DF011D928A95E9F700
:1006B00085E0EBE6F2E0DE01519601900D928A951D
:1006C000E1F772D12B013C0185E08B87E0DE80E20F
:1006D00092E0F2DE60E08BE0D2DE8B8549E0BE0185
:1006E000645F7F4F90E0C6D1CE010C96E5DE8BE6CD
:1006F000D7DD882339F08BE292E0DFD183E080936D
:10070000BC0203C085E08093BC0281E273DD8130CE
:1007100039F08EE492E0D1D183E08093BC024FC0E7
:100720001E8A42D14B015C01730162018B019C0165
:1007300040E06BE0CE010B9616DFD301C201885773
:100740009C4EAF4FBF4F88159905AA05BB0530F4E5
:1007500095DD9EDD87E08093BC0231C0BE016A5EFC
:100760007F4FCE0101964DDF182F8E3F89F08130EB
:1007700079F08F3F19F018D12B013C0161E080E046
:100780007EDECE01019698DE8CE192E095DEC9CF47
:1007900075DD7EDD113081F4BE016F5E7F4FCE01CD
:1007A00001965FD1892B21F482E08093BC0207C0BF
:1007B00086E08093BC0203C088E08093BC0266960A
:1007C0000FB6F894DEBF0FBECDBFDF91CF911F9162
:1007D0000F91FF90EF90DF90CF90BF90AF909F90E0
:1007E0008F907F906F905F904F9008958DB188604B
:1007F0008DB978948CE06EDE87E690E0EAD0D0DCAC
:10080000DCD0ACDCE1ECF2E08EE092E0938382831A
:1008100080E092E0918380833ADE80E792E04CDED4
:100820008091BC0290E08930910508F08EC0FC01F7
:100830008827EE58FF4F8F4F0CC18DE631DD88239E
:1008400039F08DE792E039D183E08093BC0280C01B
:1008500085E08093BC027CC01BDDA2DC1092BC0250
:1008600077C08FDC14DE83E892E026DE84E080939C
:10087000BC026EC08CDC0BDE89E892E01DDE2FEF3F
:1008800083ED90E3215080409040E1F700C00000EC
:10089000FEDD80E792E010DE1092BC0259C081E2DA
:1008A000A9DC813021F083E08093BC0251C0DCDC04
:1008B000C82F893721F483E08093BC0249C0DEDC75
:1008C000E7DCC13021F481E08093BC0241C010928A
:1008D000BC023EC0CEDE3CC0DADD88E992E0ECDD51
:1008E0002FEF83ED90E3215080409040E1F700C06E
:1008F000000084E08093BC022BC0C9DD88EA92E04E
:10090000DBDD61E080E0BBDD8EE992E0D5DD2FEF3D
:1009100083ED90E3215080409040E1F700C000005B
:1009200084E08093BC0214C0B2DD81EB92E0C4DDB0
:100930002FEF83ED90E3215080409040E1F700C01D
:10094000000084E08093BC0203C083E08093BC027B
:100950008FE39CE90197F1F700C0000061CF1F927F
:100960000F920FB60F9211248F939F93AF93BF9363
:100970008091BD029091BE02A091BF02B091C002D1
:100980000196A11DB11D8093BD029093BE02A0935C
:10099000BF02B093C002BF91AF919F918F910F9012
:1009A0000FBE0F901F9018956091BD027091BE020E
:1009B0008091BF029091C002089582E08093B000C0
:1009C00094E09093B100809370008AEF8093B3001D
:1009D00008959093C5008093C400E1ECF0E080811D
:1009E00088618083E2ECF0E080818E6080830895EE
:1009F0009091C00095FFFCCF8093C6000895809130
:100A0000C00085FFFCCF8091C60090E00895A1E270
:100A10001A2EAA1BBB1BFD010DC0AA1FBB1FEE1F78
:100A2000FF1FA217B307E407F50720F0A21BB30BC3
:100A3000E40BF50B661F771F881F991F1A9469F73F
:100A400060957095809590959B01AC01BD01CF019B
:100A50000895EE0FFF1F881F8BBF0790F691E02DC2
:100A60001994FB01DC018D91019080190110D9F3DB
:100A7000990B0895BB274A3031F4992322F4BDE243
:100A8000909581959F4F01C0BB27FB015527AA2751
:100A9000880F991FAA1FA41710F0A41B839550510B
:100AA000B9F7A05DAA3308F0A95DA193009779F783
:100AB000B111B1931192CB0130C00F931F93CF931B
:100AC000DF93E091C302F091C402238121FF1BC098
:100AD0008C01D0E0C0E0F80181918F016091C302E8
:100AE0007091C402DB011896ED91FC91199788234F
:100AF00031F01995892B79F3DFEFCFEFECCF8AE056
:100B00001995892B19F08FEF9FEF02C08D2F9C2F25
:100B1000DF91CF911F910F910895DC01FC01672FA8
:100B200071917723E1F7329704C07C916D937083C4
:0E0B30006291AE17BF07C8F30895F894FFCF87
:100B3E0000000001000000000000FF0400000000A3
:100B4E00000200000000F804000000002020200039
:100B5E00416C61726D20696E3A20004572726F723F
:100B6E002077726974696E67206B65797061642095
:100B7E007265616420636F6D6D616E642E004572E7
:100B8E00726F72207374617274696E672072656120
:100B9E0064696E67206B6579732E003030303000DB
:100BAE00446574656374696E672E2E2E00657272CD
:100BBE006F7200416C61726D00416C61726D2073D9
:100BCE00746F70706564210057726F6E672070616C
:100BDE007373776F72642100546F6F206C6F6E6742
:0C0BEE0000546F6F20736C6F77210000C3
:00000001FF
